{
  "contractName": "wallet",
  "abi": [
    {
      "inputs": [],
      "payable": false,
      "stateMutability": "nonpayable",
      "type": "constructor"
    },
    {
      "constant": false,
      "inputs": [
        {
          "internalType": "address",
          "name": "add",
          "type": "address"
        },
        {
          "internalType": "string",
          "name": "mailid",
          "type": "string"
        }
      ],
      "name": "createWallet",
      "outputs": [],
      "payable": false,
      "stateMutability": "nonpayable",
      "type": "function"
    },
    {
      "constant": true,
      "inputs": [],
      "name": "showAmmount",
      "outputs": [
        {
          "internalType": "uint256",
          "name": "",
          "type": "uint256"
        }
      ],
      "payable": false,
      "stateMutability": "view",
      "type": "function"
    },
    {
      "constant": false,
      "inputs": [
        {
          "internalType": "address",
          "name": "to",
          "type": "address"
        },
        {
          "internalType": "uint64",
          "name": "bal",
          "type": "uint64"
        }
      ],
      "name": "sendAmmount",
      "outputs": [
        {
          "internalType": "uint256",
          "name": "",
          "type": "uint256"
        }
      ],
      "payable": false,
      "stateMutability": "nonpayable",
      "type": "function"
    },
    {
      "constant": true,
      "inputs": [],
      "name": "isOwner",
      "outputs": [
        {
          "internalType": "bool",
          "name": "",
          "type": "bool"
        }
      ],
      "payable": false,
      "stateMutability": "view",
      "type": "function"
    }
  ],
  "bytecode": "0x608060405234801561001057600080fd5b50336000806101000a81548173ffffffffffffffffffffffffffffffffffffffff021916908373ffffffffffffffffffffffffffffffffffffffff160217905550610645806100606000396000f3fe608060405234801561001057600080fd5b506004361061004c5760003560e01c80632203ac03146100515780633f8f7e5a146100bd5780638a29052f146101985780638f32d59b146101b6575b600080fd5b6100a76004803603604081101561006757600080fd5b81019080803573ffffffffffffffffffffffffffffffffffffffff169060200190929190803567ffffffffffffffff1690602001909291905050506101d8565b6040518082815260200191505060405180910390f35b610196600480360360408110156100d357600080fd5b81019080803573ffffffffffffffffffffffffffffffffffffffff1690602001909291908035906020019064010000000081111561011057600080fd5b82018360208201111561012257600080fd5b8035906020019184600183028401116401000000008311171561014457600080fd5b91908080601f016020809104026020016040519081016040528093929190818152602001838380828437600081840152601f19601f8201169050808301925050505050505091929192905050506103d3565b005b6101a06104b9565b6040518082815260200191505060405180910390f35b6101be610503565b604051808215151515815260200191505060405180910390f35b60008060009054906101000a900473ffffffffffffffffffffffffffffffffffffffff1673ffffffffffffffffffffffffffffffffffffffff163373ffffffffffffffffffffffffffffffffffffffff1614156102d3578167ffffffffffffffff16600160008573ffffffffffffffffffffffffffffffffffffffff1673ffffffffffffffffffffffffffffffffffffffff16815260200190815260200160002060010160008282540192505081905550600160003373ffffffffffffffffffffffffffffffffffffffff1673ffffffffffffffffffffffffffffffffffffffff1681526020019081526020016000206001015490506103cd565b8167ffffffffffffffff16600160003373ffffffffffffffffffffffffffffffffffffffff1673ffffffffffffffffffffffffffffffffffffffff168152602001908152602001600020600101600082825403925050819055508167ffffffffffffffff16600160008573ffffffffffffffffffffffffffffffffffffffff1673ffffffffffffffffffffffffffffffffffffffff16815260200190815260200160002060010160008282540192505081905550600160003373ffffffffffffffffffffffffffffffffffffffff1673ffffffffffffffffffffffffffffffffffffffff1681526020019081526020016000206001015490505b92915050565b60405180606001604052808373ffffffffffffffffffffffffffffffffffffffff1681526020016000815260200182815250600160008473ffffffffffffffffffffffffffffffffffffffff1673ffffffffffffffffffffffffffffffffffffffff16815260200190815260200160002060008201518160000160006101000a81548173ffffffffffffffffffffffffffffffffffffffff021916908373ffffffffffffffffffffffffffffffffffffffff1602179055506020820151816001015560408201518160020190805190602001906104b192919061056b565b509050505050565b6000600160003373ffffffffffffffffffffffffffffffffffffffff1673ffffffffffffffffffffffffffffffffffffffff16815260200190815260200160002060010154905090565b60008060009054906101000a900473ffffffffffffffffffffffffffffffffffffffff1673ffffffffffffffffffffffffffffffffffffffff163373ffffffffffffffffffffffffffffffffffffffff1614156105635760019050610568565b600090505b90565b828054600181600116156101000203166002900490600052602060002090601f016020900481019282601f106105ac57805160ff19168380011785556105da565b828001600101855582156105da579182015b828111156105d95782518255916020019190600101906105be565b5b5090506105e791906105eb565b5090565b61060d91905b808211156106095760008160009055506001016105f1565b5090565b9056fea265627a7a7231582018c60a602f4e6211a25beb92678c13597c55fe17d73f30dacb3b926925843f5464736f6c63430005100032",
  "source": "//this is solidity contract for our wallet application\n// SPDX-License-Identifier: MIT\npragma solidity >=0.4.22 <0.8.0;\n\ncontract wallet {\n    address owner;\n\n    struct Wallet {\n        address id;\n        uint256 ammount;\n        string mailid;\n    }\n\n    mapping(address => Wallet) getwallet;\n\n    // modifier isOwner() {\n    //     require(msg.sender == this.owner);\n    //     _;\n    // }\n\n    constructor() public {\n        owner = msg.sender;\n    }\n\n    function createWallet(address add, string memory mailid) public {\n        getwallet[add] = Wallet(add, 0, mailid);\n    }\n\n    function showAmmount() public view returns (uint256) {\n        return getwallet[msg.sender].ammount;\n    }\n\n    function sendAmmount(address to, uint64 bal) public returns (uint256) {\n        if (msg.sender == owner) {\n            getwallet[to].ammount += bal;\n            return getwallet[msg.sender].ammount;\n        } else {\n            //if (getwallet[msg.sender].ammount >= bal) {\n            getwallet[msg.sender].ammount -= bal;\n            getwallet[to].ammount += bal;\n            return getwallet[msg.sender].ammount;\n            //} else {\n            //  return uint64(-1);\n            //}\n        }\n    }\n\n    function isOwner() public view returns (bool) {\n        if (msg.sender == owner) return true;\n        else return false;\n    }\n}\n",
  "sourcePath": "C:/coursera/truffle/eWallet/contracts/wallet.sol",
  "compiler": {
    "name": "solc",
    "version": "0.5.16+commit.9c3226ce.Emscripten.clang"
  },
  "schemaVersion": "3.2.3",
  "updatedAt": "2020-12-27T07:56:36.132Z",
  "networkType": "ethereum",
  "devdoc": {
    "methods": {}
  },
  "userdoc": {
    "methods": {}
  }
}