{
  "contractName": "wallet",
  "abi": [
    {
      "inputs": [
        {
          "internalType": "string",
          "name": "name",
          "type": "string"
        },
        {
          "internalType": "string",
          "name": "mailid",
          "type": "string"
        },
        {
          "internalType": "string",
          "name": "password",
          "type": "string"
        }
      ],
      "payable": false,
      "stateMutability": "nonpayable",
      "type": "constructor"
    },
    {
      "constant": true,
      "inputs": [
        {
          "internalType": "string",
          "name": "key",
          "type": "string"
        }
      ],
      "name": "convert",
      "outputs": [
        {
          "internalType": "bytes32",
          "name": "ret",
          "type": "bytes32"
        }
      ],
      "payable": false,
      "stateMutability": "pure",
      "type": "function"
    },
    {
      "constant": true,
      "inputs": [
        {
          "internalType": "string",
          "name": "mail",
          "type": "string"
        }
      ],
      "name": "isValid",
      "outputs": [
        {
          "internalType": "address",
          "name": "",
          "type": "address"
        }
      ],
      "payable": false,
      "stateMutability": "view",
      "type": "function"
    },
    {
      "constant": false,
      "inputs": [
        {
          "internalType": "string",
          "name": "name",
          "type": "string"
        },
        {
          "internalType": "string",
          "name": "mailid",
          "type": "string"
        },
        {
          "internalType": "string",
          "name": "password",
          "type": "string"
        }
      ],
      "name": "createWallet",
      "outputs": [
        {
          "internalType": "address",
          "name": "",
          "type": "address"
        }
      ],
      "payable": false,
      "stateMutability": "nonpayable",
      "type": "function"
    },
    {
      "constant": true,
      "inputs": [],
      "name": "showAmmount",
      "outputs": [
        {
          "internalType": "uint256",
          "name": "",
          "type": "uint256"
        }
      ],
      "payable": false,
      "stateMutability": "view",
      "type": "function"
    },
    {
      "constant": true,
      "inputs": [
        {
          "internalType": "string",
          "name": "mail",
          "type": "string"
        },
        {
          "internalType": "string",
          "name": "password",
          "type": "string"
        }
      ],
      "name": "login",
      "outputs": [
        {
          "internalType": "address",
          "name": "",
          "type": "address"
        }
      ],
      "payable": false,
      "stateMutability": "view",
      "type": "function"
    },
    {
      "constant": false,
      "inputs": [
        {
          "internalType": "string",
          "name": "to",
          "type": "string"
        },
        {
          "internalType": "uint64",
          "name": "bal",
          "type": "uint64"
        }
      ],
      "name": "sendAmmount",
      "outputs": [
        {
          "internalType": "address",
          "name": "",
          "type": "address"
        }
      ],
      "payable": false,
      "stateMutability": "nonpayable",
      "type": "function"
    },
    {
      "constant": true,
      "inputs": [],
      "name": "isOwner",
      "outputs": [
        {
          "internalType": "bool",
          "name": "",
          "type": "bool"
        }
      ],
      "payable": false,
      "stateMutability": "view",
      "type": "function"
    }
  ],
  "bytecode": "0x60806040523480156200001157600080fd5b506040516200121738038062001217833981810160405262000037919081019062000362565b336000806101000a81548173ffffffffffffffffffffffffffffffffffffffff021916908373ffffffffffffffffffffffffffffffffffffffff1602179055506040518060c001604052806000809054906101000a900473ffffffffffffffffffffffffffffffffffffffff1673ffffffffffffffffffffffffffffffffffffffff1681526020016000815260200184815260200183815260200182815260200160011515815250600160003373ffffffffffffffffffffffffffffffffffffffff1673ffffffffffffffffffffffffffffffffffffffff16815260200190815260200160002060008201518160000160006101000a81548173ffffffffffffffffffffffffffffffffffffffff021916908373ffffffffffffffffffffffffffffffffffffffff1602179055506020820151816001015560408201518160020190805190602001906200018d92919062000257565b506060820151816003019080519060200190620001ac92919062000257565b506080820151816004019080519060200190620001cb92919062000257565b5060a08201518160050160006101000a81548160ff021916908315150217905550905050336002836040516200020291906200043a565b908152602001604051809103902060006101000a81548173ffffffffffffffffffffffffffffffffffffffff021916908373ffffffffffffffffffffffffffffffffffffffff160217905550505050620004fa565b828054600181600116156101000203166002900490600052602060002090601f016020900481019282601f106200029a57805160ff1916838001178555620002cb565b82800160010185558215620002cb579182015b82811115620002ca578251825591602001919060010190620002ad565b5b509050620002da9190620002de565b5090565b6200030391905b80821115620002ff576000816000905550600101620002e5565b5090565b90565b600082601f8301126200031857600080fd5b81516200032f620003298262000481565b62000453565b915080825260208301602083018583830111156200034c57600080fd5b62000359838284620004c4565b50505092915050565b6000806000606084860312156200037857600080fd5b600084015167ffffffffffffffff8111156200039357600080fd5b620003a18682870162000306565b935050602084015167ffffffffffffffff811115620003bf57600080fd5b620003cd8682870162000306565b925050604084015167ffffffffffffffff811115620003eb57600080fd5b620003f98682870162000306565b9150509250925092565b60006200041082620004ae565b6200041c8185620004b9565b93506200042e818560208601620004c4565b80840191505092915050565b600062000448828462000403565b915081905092915050565b6000604051905081810181811067ffffffffffffffff821117156200047757600080fd5b8060405250919050565b600067ffffffffffffffff8211156200049957600080fd5b601f19601f8301169050602081019050919050565b600081519050919050565b600081905092915050565b60005b83811015620004e4578082015181840152602081019050620004c7565b83811115620004f4576000848401525b50505050565b610d0d806200050a6000396000f3fe608060405234801561001057600080fd5b506004361061007d5760003560e01c80638f32d59b1161005b5780638f32d59b14610100578063962a64cd1461011e578063c825bb2f1461014e578063f1dfaefb1461017e5761007d565b80630cac72491461008257806358467dbc146100b25780638a29052f146100e2575b600080fd5b61009c60048036036100979190810190610a58565b6101ae565b6040516100a99190610b30565b60405180910390f35b6100cc60048036036100c79190810190610955565b6103a7565b6040516100d99190610b30565b60405180910390f35b6100ea6104f7565b6040516100f79190610b81565b60405180910390f35b610108610541565b6040516101159190610b4b565b60405180910390f35b61013860048036036101339190810190610914565b6105a9565b6040516101459190610b66565b60405180910390f35b610168600480360361016391908101906109c1565b6105c6565b6040516101759190610b30565b60405180910390f35b61019860048036036101939190810190610914565b6107be565b6040516101a59190610b30565b60405180910390f35b6000806002846040516101c19190610b19565b908152602001604051809103902060009054906101000a900473ffffffffffffffffffffffffffffffffffffffff169050600073ffffffffffffffffffffffffffffffffffffffff168173ffffffffffffffffffffffffffffffffffffffff16141561023057809150506103a1565b6000809054906101000a900473ffffffffffffffffffffffffffffffffffffffff1673ffffffffffffffffffffffffffffffffffffffff163373ffffffffffffffffffffffffffffffffffffffff1614156102e8578267ffffffffffffffff16600160008373ffffffffffffffffffffffffffffffffffffffff1673ffffffffffffffffffffffffffffffffffffffff16815260200190815260200160002060010160008282540192505081905550809150506103a1565b8267ffffffffffffffff16600160003373ffffffffffffffffffffffffffffffffffffffff1673ffffffffffffffffffffffffffffffffffffffff168152602001908152602001600020600101600082825403925050819055508267ffffffffffffffff16600160008373ffffffffffffffffffffffffffffffffffffffff1673ffffffffffffffffffffffffffffffffffffffff16815260200190815260200160002060010160008282540192505081905550809150505b92915050565b6000806002846040516103ba9190610b19565b908152602001604051809103902060009054906101000a900473ffffffffffffffffffffffffffffffffffffffff1690506060600160008373ffffffffffffffffffffffffffffffffffffffff1673ffffffffffffffffffffffffffffffffffffffff1681526020019081526020016000206004018054600181600116156101000203166002900480601f0160208091040260200160405190810160405280929190818152602001828054600181600116156101000203166002900480156104c35780601f10610498576101008083540402835291602001916104c3565b820191906000526020600020905b8154815290600101906020018083116104a657829003601f168201915b505050505090508080519060200120848051906020012014156104ea5781925050506104f1565b6000925050505b92915050565b6000600160003373ffffffffffffffffffffffffffffffffffffffff1673ffffffffffffffffffffffffffffffffffffffff16815260200190815260200160002060010154905090565b60008060009054906101000a900473ffffffffffffffffffffffffffffffffffffffff1673ffffffffffffffffffffffffffffffffffffffff163373ffffffffffffffffffffffffffffffffffffffff1614156105a157600190506105a6565b600090505b90565b60006020825111156105ba57600080fd5b60208201519050919050565b60006040518060c001604052803373ffffffffffffffffffffffffffffffffffffffff1681526020016000815260200185815260200184815260200183815260200160011515815250600160003373ffffffffffffffffffffffffffffffffffffffff1673ffffffffffffffffffffffffffffffffffffffff16815260200190815260200160002060008201518160000160006101000a81548173ffffffffffffffffffffffffffffffffffffffff021916908373ffffffffffffffffffffffffffffffffffffffff1602179055506020820151816001015560408201518160020190805190602001906106bb929190610806565b5060608201518160030190805190602001906106d8929190610806565b5060808201518160040190805190602001906106f5929190610806565b5060a08201518160050160006101000a81548160ff0219169083151502179055509050503360028460405161072a9190610b19565b908152602001604051809103902060006101000a81548173ffffffffffffffffffffffffffffffffffffffff021916908373ffffffffffffffffffffffffffffffffffffffff1602179055506002836040516107869190610b19565b908152602001604051809103902060009054906101000a900473ffffffffffffffffffffffffffffffffffffffff1690509392505050565b60006002826040516107d09190610b19565b908152602001604051809103902060009054906101000a900473ffffffffffffffffffffffffffffffffffffffff169050919050565b828054600181600116156101000203166002900490600052602060002090601f016020900481019282601f1061084757805160ff1916838001178555610875565b82800160010185558215610875579182015b82811115610874578251825591602001919060010190610859565b5b5090506108829190610886565b5090565b6108a891905b808211156108a457600081600090555060010161088c565b5090565b90565b600082601f8301126108bc57600080fd5b81356108cf6108ca82610bc9565b610b9c565b915080825260208301602083018583830111156108eb57600080fd5b6108f6838284610c71565b50505092915050565b60008135905061090e81610cb3565b92915050565b60006020828403121561092657600080fd5b600082013567ffffffffffffffff81111561094057600080fd5b61094c848285016108ab565b91505092915050565b6000806040838503121561096857600080fd5b600083013567ffffffffffffffff81111561098257600080fd5b61098e858286016108ab565b925050602083013567ffffffffffffffff8111156109ab57600080fd5b6109b7858286016108ab565b9150509250929050565b6000806000606084860312156109d657600080fd5b600084013567ffffffffffffffff8111156109f057600080fd5b6109fc868287016108ab565b935050602084013567ffffffffffffffff811115610a1957600080fd5b610a25868287016108ab565b925050604084013567ffffffffffffffff811115610a4257600080fd5b610a4e868287016108ab565b9150509250925092565b60008060408385031215610a6b57600080fd5b600083013567ffffffffffffffff811115610a8557600080fd5b610a91858286016108ab565b9250506020610aa2858286016108ff565b9150509250929050565b610ab581610c0b565b82525050565b610ac481610c1d565b82525050565b610ad381610c29565b82525050565b6000610ae482610bf5565b610aee8185610c00565b9350610afe818560208601610c80565b80840191505092915050565b610b1381610c53565b82525050565b6000610b258284610ad9565b915081905092915050565b6000602082019050610b456000830184610aac565b92915050565b6000602082019050610b606000830184610abb565b92915050565b6000602082019050610b7b6000830184610aca565b92915050565b6000602082019050610b966000830184610b0a565b92915050565b6000604051905081810181811067ffffffffffffffff82111715610bbf57600080fd5b8060405250919050565b600067ffffffffffffffff821115610be057600080fd5b601f19601f8301169050602081019050919050565b600081519050919050565b600081905092915050565b6000610c1682610c33565b9050919050565b60008115159050919050565b6000819050919050565b600073ffffffffffffffffffffffffffffffffffffffff82169050919050565b6000819050919050565b600067ffffffffffffffff82169050919050565b82818337600083830152505050565b60005b83811015610c9e578082015181840152602081019050610c83565b83811115610cad576000848401525b50505050565b610cbc81610c5d565b8114610cc757600080fd5b5056fea365627a7a72315820b5a56976563e433b31401b864aab10af916920002c6e5b13d9a4f2ae6082ef0b6c6578706572696d656e74616cf564736f6c63430005100040",
  "source": "//this is solidity contract for our wallet application\n// SPDX-License-Identifier: MIT\npragma solidity >=0.4.22 <0.8.0;\npragma experimental ABIEncoderV2;\n\ncontract wallet {\n    address owner;\n\n    struct Wallet {\n        address id;\n        uint256 ammount;\n        string name;\n        string mailid;\n        string password;\n        bool isvalid;\n    }\n\n    mapping(address => Wallet) getwallet;\n    mapping(string => address) registered;\n\n    constructor(\n        string memory name,\n        string memory mailid,\n        string memory password\n    ) public {\n        owner = msg.sender;\n        getwallet[msg.sender] = Wallet(owner, 0, name, mailid, password, true);\n        registered[mailid] = msg.sender;\n    }\n\n    function convert(string memory key) public pure returns (bytes32 ret) {\n        if (bytes(key).length > 32) {\n            revert();\n        }\n\n        assembly {\n            ret := mload(add(key, 32))\n        }\n    }\n\n    function isValid(string memory mail) public view returns (address) {\n        // if (registered[mail] == address(0)) return false;\n        return registered[mail];\n    }\n\n    function createWallet(\n        string memory name,\n        string memory mailid,\n        string memory password\n    ) public returns (address) {\n        //returns (bool) {\n        // if (!getwallet[mailid].isvalid) return false;\n        getwallet[msg.sender] = Wallet(\n            msg.sender,\n            0,\n            name,\n            mailid,\n            password,\n            true\n        );\n        registered[mailid] = msg.sender;\n        // registered[mailid] = true;\n        return registered[mailid];\n    }\n\n    function showAmmount() public view returns (uint256) {\n        return getwallet[msg.sender].ammount;\n    }\n\n    function login(string memory mail, string memory password)\n        public\n        view\n        returns (address)\n    {\n        address add = registered[mail];\n        string memory pass = getwallet[add].password;\n        if (keccak256(bytes(password)) == keccak256(bytes(pass))) return add;\n        return address(0);\n    }\n\n    function sendAmmount(string memory to, uint64 bal) public returns (address) {\n        address receiver = registered[to];\n        if(receiver == address(0)){\n            return receiver;\n        }\n        if (msg.sender == owner) {\n            getwallet[receiver].ammount += bal;\n            return receiver;\n        } else {\n            getwallet[msg.sender].ammount -= bal;\n            getwallet[receiver].ammount += bal;\n            return receiver;\n        }\n    }\n\n    function isOwner() public view returns (bool) {\n        if (msg.sender == owner) return true;\n        else return false;\n    }\n}\n",
  "sourcePath": "C:/coursera/truffle/eWallet/contracts/wallet.sol",
  "compiler": {
    "name": "solc",
    "version": "0.5.16+commit.9c3226ce.Emscripten.clang"
  },
  "schemaVersion": "3.2.3",
  "updatedAt": "2021-02-02T15:42:01.858Z",
  "networkType": "ethereum",
  "devdoc": {
    "methods": {}
  },
  "userdoc": {
    "methods": {}
  }
}