{
  "contractName": "wallet",
  "abi": [
    {
      "inputs": [
        {
          "internalType": "string",
          "name": "name",
          "type": "string"
        },
        {
          "internalType": "string",
          "name": "mailid",
          "type": "string"
        },
        {
          "internalType": "string",
          "name": "password",
          "type": "string"
        }
      ],
      "payable": false,
      "stateMutability": "nonpayable",
      "type": "constructor"
    },
    {
      "constant": true,
      "inputs": [
        {
          "internalType": "string",
          "name": "key",
          "type": "string"
        }
      ],
      "name": "convert",
      "outputs": [
        {
          "internalType": "bytes32",
          "name": "ret",
          "type": "bytes32"
        }
      ],
      "payable": false,
      "stateMutability": "pure",
      "type": "function"
    },
    {
      "constant": true,
      "inputs": [
        {
          "internalType": "string",
          "name": "mail",
          "type": "string"
        }
      ],
      "name": "isValid",
      "outputs": [
        {
          "internalType": "address",
          "name": "",
          "type": "address"
        }
      ],
      "payable": false,
      "stateMutability": "view",
      "type": "function"
    },
    {
      "constant": false,
      "inputs": [
        {
          "internalType": "string",
          "name": "name",
          "type": "string"
        },
        {
          "internalType": "string",
          "name": "mailid",
          "type": "string"
        },
        {
          "internalType": "string",
          "name": "password",
          "type": "string"
        }
      ],
      "name": "createWallet",
      "outputs": [
        {
          "internalType": "address",
          "name": "",
          "type": "address"
        }
      ],
      "payable": false,
      "stateMutability": "nonpayable",
      "type": "function"
    },
    {
      "constant": true,
      "inputs": [],
      "name": "showAmmount",
      "outputs": [
        {
          "internalType": "uint256",
          "name": "",
          "type": "uint256"
        }
      ],
      "payable": false,
      "stateMutability": "view",
      "type": "function"
    },
    {
      "constant": true,
      "inputs": [
        {
          "internalType": "string",
          "name": "mail",
          "type": "string"
        },
        {
          "internalType": "string",
          "name": "password",
          "type": "string"
        }
      ],
      "name": "login",
      "outputs": [
        {
          "internalType": "address",
          "name": "",
          "type": "address"
        }
      ],
      "payable": false,
      "stateMutability": "view",
      "type": "function"
    },
    {
      "constant": false,
      "inputs": [
        {
          "internalType": "string",
          "name": "password",
          "type": "string"
        }
      ],
      "name": "setNewPass",
      "outputs": [],
      "payable": false,
      "stateMutability": "nonpayable",
      "type": "function"
    },
    {
      "constant": true,
      "inputs": [
        {
          "internalType": "string",
          "name": "email",
          "type": "string"
        }
      ],
      "name": "getPass",
      "outputs": [
        {
          "internalType": "string",
          "name": "",
          "type": "string"
        }
      ],
      "payable": false,
      "stateMutability": "view",
      "type": "function"
    },
    {
      "constant": false,
      "inputs": [
        {
          "internalType": "string",
          "name": "to",
          "type": "string"
        },
        {
          "internalType": "uint64",
          "name": "bal",
          "type": "uint64"
        }
      ],
      "name": "sendAmmount",
      "outputs": [
        {
          "internalType": "address",
          "name": "",
          "type": "address"
        }
      ],
      "payable": false,
      "stateMutability": "nonpayable",
      "type": "function"
    },
    {
      "constant": true,
      "inputs": [],
      "name": "isOwner",
      "outputs": [
        {
          "internalType": "bool",
          "name": "",
          "type": "bool"
        }
      ],
      "payable": false,
      "stateMutability": "view",
      "type": "function"
    },
    {
      "constant": true,
      "inputs": [],
      "name": "retTrans",
      "outputs": [
        {
          "components": [
            {
              "internalType": "string",
              "name": "to",
              "type": "string"
            },
            {
              "internalType": "string",
              "name": "from",
              "type": "string"
            },
            {
              "internalType": "uint256",
              "name": "ammount",
              "type": "uint256"
            },
            {
              "internalType": "uint256",
              "name": "time",
              "type": "uint256"
            }
          ],
          "internalType": "struct wallet.transaction[]",
          "name": "",
          "type": "tuple[]"
        }
      ],
      "payable": false,
      "stateMutability": "view",
      "type": "function"
    }
  ],
  "bytecode": "0x60806040523480156200001157600080fd5b5060405162001cf138038062001cf1833981810160405262000037919081019062000362565b336000806101000a81548173ffffffffffffffffffffffffffffffffffffffff021916908373ffffffffffffffffffffffffffffffffffffffff1602179055506040518060c001604052806000809054906101000a900473ffffffffffffffffffffffffffffffffffffffff1673ffffffffffffffffffffffffffffffffffffffff168152602001600a815260200184815260200183815260200182815260200160011515815250600160003373ffffffffffffffffffffffffffffffffffffffff1673ffffffffffffffffffffffffffffffffffffffff16815260200190815260200160002060008201518160000160006101000a81548173ffffffffffffffffffffffffffffffffffffffff021916908373ffffffffffffffffffffffffffffffffffffffff1602179055506020820151816001015560408201518160020190805190602001906200018d92919062000257565b506060820151816003019080519060200190620001ac92919062000257565b506080820151816004019080519060200190620001cb92919062000257565b5060a08201518160050160006101000a81548160ff021916908315150217905550905050336003836040516200020291906200043a565b908152602001604051809103902060006101000a81548173ffffffffffffffffffffffffffffffffffffffff021916908373ffffffffffffffffffffffffffffffffffffffff160217905550505050620004fa565b828054600181600116156101000203166002900490600052602060002090601f016020900481019282601f106200029a57805160ff1916838001178555620002cb565b82800160010185558215620002cb579182015b82811115620002ca578251825591602001919060010190620002ad565b5b509050620002da9190620002de565b5090565b6200030391905b80821115620002ff576000816000905550600101620002e5565b5090565b90565b600082601f8301126200031857600080fd5b81516200032f620003298262000481565b62000453565b915080825260208301602083018583830111156200034c57600080fd5b62000359838284620004c4565b50505092915050565b6000806000606084860312156200037857600080fd5b600084015167ffffffffffffffff8111156200039357600080fd5b620003a18682870162000306565b935050602084015167ffffffffffffffff811115620003bf57600080fd5b620003cd8682870162000306565b925050604084015167ffffffffffffffff811115620003eb57600080fd5b620003f98682870162000306565b9150509250925092565b60006200041082620004ae565b6200041c8185620004b9565b93506200042e818560208601620004c4565b80840191505092915050565b600062000448828462000403565b915081905092915050565b6000604051905081810181811067ffffffffffffffff821117156200047757600080fd5b8060405250919050565b600067ffffffffffffffff8211156200049957600080fd5b601f19601f8301169050602081019050919050565b600081519050919050565b600081905092915050565b60005b83811015620004e4578082015181840152602081019050620004c7565b83811115620004f4576000848401525b50505050565b6117e7806200050a6000396000f3fe608060405234801561001057600080fd5b506004361061009e5760003560e01c80638f32d59b116100665780638f32d59b1461016f578063962a64cd1461018d578063c825bb2f146101bd578063f0e7bb84146101ed578063f1dfaefb146102095761009e565b80630cac7249146100a357806335cbf397146100d357806358467dbc146100f157806364e5f75c146101215780638a29052f14610151575b600080fd5b6100bd60048036036100b89190810190611303565b610239565b6040516100ca919061154f565b60405180910390f35b6100db6107b2565b6040516100e8919061156a565b60405180910390f35b61010b60048036036101069190810190611200565b6109a6565b604051610118919061154f565b60405180910390f35b61013b600480360361013691908101906111bf565b610af6565b60405161014891906115c2565b60405180910390f35b610159610cc8565b60405161016691906115e4565b60405180910390f35b610177610d12565b604051610184919061158c565b60405180910390f35b6101a760048036036101a291908101906111bf565b610d7a565b6040516101b491906115a7565b60405180910390f35b6101d760048036036101d2919081019061126c565b610d97565b6040516101e4919061154f565b60405180910390f35b610207600480360361020291908101906111bf565b610f8f565b005b610223600480360361021e91908101906111bf565b610fe9565b604051610230919061154f565b60405180910390f35b60008060038460405161024c9190611538565b908152602001604051809103902060009054906101000a900473ffffffffffffffffffffffffffffffffffffffff169050600073ffffffffffffffffffffffffffffffffffffffff168173ffffffffffffffffffffffffffffffffffffffff1614156102bb57809150506107ac565b600260003373ffffffffffffffffffffffffffffffffffffffff1673ffffffffffffffffffffffffffffffffffffffff1681526020019081526020016000206040518060800160405280868152602001600160003373ffffffffffffffffffffffffffffffffffffffff1673ffffffffffffffffffffffffffffffffffffffff1681526020019081526020016000206003018054600181600116156101000203166002900480601f0160208091040260200160405190810160405280929190818152602001828054600181600116156101000203166002900480156103e15780601f106103b6576101008083540402835291602001916103e1565b820191906000526020600020905b8154815290600101906020018083116103c457829003601f168201915b505050505081526020018567ffffffffffffffff16815260200142815250908060018154018082558091505090600182039060005260206000209060040201600090919290919091506000820151816000019080519060200190610446929190611031565b506020820151816001019080519060200190610463929190611031565b506040820151816002015560608201518160030155505050600260008273ffffffffffffffffffffffffffffffffffffffff1673ffffffffffffffffffffffffffffffffffffffff1681526020019081526020016000206040518060800160405280868152602001600160003373ffffffffffffffffffffffffffffffffffffffff1673ffffffffffffffffffffffffffffffffffffffff1681526020019081526020016000206003018054600181600116156101000203166002900480601f0160208091040260200160405190810160405280929190818152602001828054600181600116156101000203166002900480156105a15780601f10610576576101008083540402835291602001916105a1565b820191906000526020600020905b81548152906001019060200180831161058457829003601f168201915b505050505081526020018567ffffffffffffffff16815260200142815250908060018154018082558091505090600182039060005260206000209060040201600090919290919091506000820151816000019080519060200190610606929190611031565b506020820151816001019080519060200190610623929190611031565b5060408201518160020155606082015181600301555050506000809054906101000a900473ffffffffffffffffffffffffffffffffffffffff1673ffffffffffffffffffffffffffffffffffffffff163373ffffffffffffffffffffffffffffffffffffffff1614156106f3578267ffffffffffffffff16600160008373ffffffffffffffffffffffffffffffffffffffff1673ffffffffffffffffffffffffffffffffffffffff16815260200190815260200160002060010160008282540192505081905550809150506107ac565b8267ffffffffffffffff16600160003373ffffffffffffffffffffffffffffffffffffffff1673ffffffffffffffffffffffffffffffffffffffff168152602001908152602001600020600101600082825403925050819055508267ffffffffffffffff16600160008373ffffffffffffffffffffffffffffffffffffffff1673ffffffffffffffffffffffffffffffffffffffff16815260200190815260200160002060010160008282540192505081905550809150505b92915050565b6060600260003373ffffffffffffffffffffffffffffffffffffffff1673ffffffffffffffffffffffffffffffffffffffff168152602001908152602001600020805480602002602001604051908101604052809291908181526020016000905b8282101561099d5783829060005260206000209060040201604051806080016040529081600082018054600181600116156101000203166002900480601f0160208091040260200160405190810160405280929190818152602001828054600181600116156101000203166002900480156108cf5780601f106108a4576101008083540402835291602001916108cf565b820191906000526020600020905b8154815290600101906020018083116108b257829003601f168201915b50505050508152602001600182018054600181600116156101000203166002900480601f0160208091040260200160405190810160405280929190818152602001828054600181600116156101000203166002900480156109715780601f1061094657610100808354040283529160200191610971565b820191906000526020600020905b81548152906001019060200180831161095457829003601f168201915b505050505081526020016002820154815260200160038201548152505081526020019060010190610813565b50505050905090565b6000806003846040516109b99190611538565b908152602001604051809103902060009054906101000a900473ffffffffffffffffffffffffffffffffffffffff1690506060600160008373ffffffffffffffffffffffffffffffffffffffff1673ffffffffffffffffffffffffffffffffffffffff1681526020019081526020016000206004018054600181600116156101000203166002900480601f016020809104026020016040519081016040528092919081815260200182805460018160011615610100020316600290048015610ac25780601f10610a9757610100808354040283529160200191610ac2565b820191906000526020600020905b815481529060010190602001808311610aa557829003601f168201915b50505050509050808051906020012084805190602001201415610ae9578192505050610af0565b6000925050505b92915050565b6060600073ffffffffffffffffffffffffffffffffffffffff16600383604051610b209190611538565b908152602001604051809103902060009054906101000a900473ffffffffffffffffffffffffffffffffffffffff1673ffffffffffffffffffffffffffffffffffffffff1614610c8a5760016000600384604051610b7e9190611538565b908152602001604051809103902060009054906101000a900473ffffffffffffffffffffffffffffffffffffffff1673ffffffffffffffffffffffffffffffffffffffff1673ffffffffffffffffffffffffffffffffffffffff1681526020019081526020016000206004018054600181600116156101000203166002900480601f016020809104026020016040519081016040528092919081815260200182805460018160011615610100020316600290048015610c7e5780601f10610c5357610100808354040283529160200191610c7e565b820191906000526020600020905b815481529060010190602001808311610c6157829003601f168201915b50505050509050610cc3565b6040518060400160405280600181526020017f300000000000000000000000000000000000000000000000000000000000000081525090505b919050565b6000600160003373ffffffffffffffffffffffffffffffffffffffff1673ffffffffffffffffffffffffffffffffffffffff16815260200190815260200160002060010154905090565b60008060009054906101000a900473ffffffffffffffffffffffffffffffffffffffff1673ffffffffffffffffffffffffffffffffffffffff163373ffffffffffffffffffffffffffffffffffffffff161415610d725760019050610d77565b600090505b90565b6000602082511115610d8b57600080fd5b60208201519050919050565b60006040518060c001604052803373ffffffffffffffffffffffffffffffffffffffff168152602001600a815260200185815260200184815260200183815260200160011515815250600160003373ffffffffffffffffffffffffffffffffffffffff1673ffffffffffffffffffffffffffffffffffffffff16815260200190815260200160002060008201518160000160006101000a81548173ffffffffffffffffffffffffffffffffffffffff021916908373ffffffffffffffffffffffffffffffffffffffff160217905550602082015181600101556040820151816002019080519060200190610e8c929190611031565b506060820151816003019080519060200190610ea9929190611031565b506080820151816004019080519060200190610ec6929190611031565b5060a08201518160050160006101000a81548160ff02191690831515021790555090505033600384604051610efb9190611538565b908152602001604051809103902060006101000a81548173ffffffffffffffffffffffffffffffffffffffff021916908373ffffffffffffffffffffffffffffffffffffffff160217905550600383604051610f579190611538565b908152602001604051809103902060009054906101000a900473ffffffffffffffffffffffffffffffffffffffff1690509392505050565b80600160003373ffffffffffffffffffffffffffffffffffffffff1673ffffffffffffffffffffffffffffffffffffffff1681526020019081526020016000206004019080519060200190610fe59291906110b1565b5050565b6000600382604051610ffb9190611538565b908152602001604051809103902060009054906101000a900473ffffffffffffffffffffffffffffffffffffffff169050919050565b828054600181600116156101000203166002900490600052602060002090601f016020900481019282601f1061107257805160ff19168380011785556110a0565b828001600101855582156110a0579182015b8281111561109f578251825591602001919060010190611084565b5b5090506110ad9190611131565b5090565b828054600181600116156101000203166002900490600052602060002090601f016020900481019282601f106110f257805160ff1916838001178555611120565b82800160010185558215611120579182015b8281111561111f578251825591602001919060010190611104565b5b50905061112d9190611131565b5090565b61115391905b8082111561114f576000816000905550600101611137565b5090565b90565b600082601f83011261116757600080fd5b813561117a6111758261162c565b6115ff565b9150808252602083016020830185838301111561119657600080fd5b6111a183828461173a565b50505092915050565b6000813590506111b98161178d565b92915050565b6000602082840312156111d157600080fd5b600082013567ffffffffffffffff8111156111eb57600080fd5b6111f784828501611156565b91505092915050565b6000806040838503121561121357600080fd5b600083013567ffffffffffffffff81111561122d57600080fd5b61123985828601611156565b925050602083013567ffffffffffffffff81111561125657600080fd5b61126285828601611156565b9150509250929050565b60008060006060848603121561128157600080fd5b600084013567ffffffffffffffff81111561129b57600080fd5b6112a786828701611156565b935050602084013567ffffffffffffffff8111156112c457600080fd5b6112d086828701611156565b925050604084013567ffffffffffffffff8111156112ed57600080fd5b6112f986828701611156565b9150509250925092565b6000806040838503121561131657600080fd5b600083013567ffffffffffffffff81111561133057600080fd5b61133c85828601611156565b925050602061134d858286016111aa565b9150509250929050565b600061136383836114b0565b905092915050565b611374816116d4565b82525050565b600061138582611668565b61138f8185611696565b9350836020820285016113a185611658565b8060005b858110156113dd57848403895281516113be8582611357565b94506113c983611689565b925060208a019950506001810190506113a5565b50829750879550505050505092915050565b6113f8816116e6565b82525050565b611407816116f2565b82525050565b60006114188261167e565b61142281856116b8565b9350611432818560208601611749565b61143b8161177c565b840191505092915050565b60006114518261167e565b61145b81856116c9565b935061146b818560208601611749565b80840191505092915050565b600061148282611673565b61148c81856116a7565b935061149c818560208601611749565b6114a58161177c565b840191505092915050565b600060808301600083015184820360008601526114cd8282611477565b915050602083015184820360208601526114e78282611477565b91505060408301516114fc604086018261151a565b50606083015161150f606086018261151a565b508091505092915050565b6115238161171c565b82525050565b6115328161171c565b82525050565b60006115448284611446565b915081905092915050565b6000602082019050611564600083018461136b565b92915050565b60006020820190508181036000830152611584818461137a565b905092915050565b60006020820190506115a160008301846113ef565b92915050565b60006020820190506115bc60008301846113fe565b92915050565b600060208201905081810360008301526115dc818461140d565b905092915050565b60006020820190506115f96000830184611529565b92915050565b6000604051905081810181811067ffffffffffffffff8211171561162257600080fd5b8060405250919050565b600067ffffffffffffffff82111561164357600080fd5b601f19601f8301169050602081019050919050565b6000819050602082019050919050565b600081519050919050565b600081519050919050565b600081519050919050565b6000602082019050919050565b600082825260208201905092915050565b600082825260208201905092915050565b600082825260208201905092915050565b600081905092915050565b60006116df826116fc565b9050919050565b60008115159050919050565b6000819050919050565b600073ffffffffffffffffffffffffffffffffffffffff82169050919050565b6000819050919050565b600067ffffffffffffffff82169050919050565b82818337600083830152505050565b60005b8381101561176757808201518184015260208101905061174c565b83811115611776576000848401525b50505050565b6000601f19601f8301169050919050565b61179681611726565b81146117a157600080fd5b5056fea365627a7a7231582048efc531736289c5adc11c596e528e2cdfeedf128913541952cd4202fb996c736c6578706572696d656e74616cf564736f6c63430005100040",
  "source": "//this is solidity contract for our wallet application\n// SPDX-License-Identifier: MIT\npragma solidity >=0.4.22 <0.8.0;\npragma experimental ABIEncoderV2;\n\ncontract wallet {\n    address owner;\n\n    struct Wallet {\n        address id;\n        uint256 ammount;\n        string name;\n        string mailid;\n        string password;\n        bool isvalid;\n    }\n\n    struct transaction {\n        string to;\n        string from;\n        uint256 ammount;\n        uint256 time;\n    }\n\n    mapping(address => Wallet) getwallet;\n    mapping(address => transaction[]) getTrans;\n    mapping(string => address) registered;\n\n    constructor(\n        string memory name,\n        string memory mailid,\n        string memory password\n    ) public {\n        owner = msg.sender;\n        getwallet[msg.sender] = Wallet(owner, 10, name, mailid, password, true);\n        registered[mailid] = msg.sender;\n    }\n\n    function convert(string memory key) public pure returns (bytes32 ret) {\n        if (bytes(key).length > 32) {\n            revert();\n        }\n\n        assembly {\n            ret := mload(add(key, 32))\n        }\n    }\n\n    function isValid(string memory mail) public view returns (address) {\n        // if (registered[mail] == address(0)) return false;\n        return registered[mail];\n    }\n\n    function createWallet(\n        string memory name,\n        string memory mailid,\n        string memory password\n    ) public returns (address) {\n        //returns (bool) {\n        // if (!getwallet[mailid].isvalid) return false;\n        getwallet[msg.sender] = Wallet(\n            msg.sender,\n            10,\n            name,\n            mailid,\n            password,\n            true\n        );\n        registered[mailid] = msg.sender;\n        // registered[mailid] = true;\n        return registered[mailid];\n    }\n\n    function showAmmount() public view returns (uint256) {\n        return getwallet[msg.sender].ammount;\n    }\n\n    function login(string memory mail, string memory password)\n        public\n        view\n        returns (address)\n    {\n        address add = registered[mail];\n        string memory pass = getwallet[add].password;\n        if (keccak256(bytes(password)) == keccak256(bytes(pass))) return add;\n        return address(0);\n    }\n\n    function setNewPass(string memory password) public {\n        getwallet[msg.sender].password = password;\n    }\n\n    function getPass(string memory email) public view returns (string memory) {\n        if (registered[email] != address(0))\n            return getwallet[registered[email]].password;\n        else return \"0\";\n    }\n\n    function sendAmmount(string memory to, uint64 bal)\n        public\n        returns (address)\n    {\n        address receiver = registered[to];\n        if (receiver == address(0)) {\n            return receiver;\n        }\n        getTrans[msg.sender].push(\n            transaction(to, getwallet[msg.sender].mailid, bal, now)\n        );\n        getTrans[receiver].push(\n            transaction(to, getwallet[msg.sender].mailid, bal, now)\n        );\n        if (msg.sender == owner) {\n            getwallet[receiver].ammount += bal;\n            return receiver;\n        } else {\n            getwallet[msg.sender].ammount -= bal;\n            getwallet[receiver].ammount += bal;\n            return receiver;\n        }\n    }\n\n    function isOwner() public view returns (bool) {\n        if (msg.sender == owner) return true;\n        else return false;\n    }\n\n    function retTrans() public view returns (transaction[] memory) {\n        return getTrans[msg.sender];\n    }\n}\n",
  "sourcePath": "C:/coursera/truffle/eWallet/contracts/wallet.sol",
  "compiler": {
    "name": "solc",
    "version": "0.5.16+commit.9c3226ce.Emscripten.clang"
  },
  "schemaVersion": "3.2.3",
  "updatedAt": "2021-06-30T06:40:19.091Z",
  "networkType": "ethereum",
  "devdoc": {
    "methods": {}
  },
  "userdoc": {
    "methods": {}
  }
}