{
  "contractName": "wallet",
  "abi": [
    {
      "constant": false,
      "inputs": [
        {
          "internalType": "address",
          "name": "add",
          "type": "address"
        },
        {
          "internalType": "uint256",
          "name": "ammount",
          "type": "uint256"
        },
        {
          "internalType": "string",
          "name": "mailid",
          "type": "string"
        }
      ],
      "name": "createWallet",
      "outputs": [],
      "payable": false,
      "stateMutability": "nonpayable",
      "type": "function"
    },
    {
      "constant": true,
      "inputs": [
        {
          "internalType": "address",
          "name": "add",
          "type": "address"
        }
      ],
      "name": "showAmmount",
      "outputs": [
        {
          "internalType": "uint256",
          "name": "",
          "type": "uint256"
        }
      ],
      "payable": false,
      "stateMutability": "view",
      "type": "function"
    },
    {
      "constant": false,
      "inputs": [
        {
          "internalType": "address",
          "name": "add",
          "type": "address"
        },
        {
          "internalType": "uint64",
          "name": "ammount",
          "type": "uint64"
        }
      ],
      "name": "sendAmmount",
      "outputs": [],
      "payable": false,
      "stateMutability": "nonpayable",
      "type": "function"
    }
  ],
  "bytecode": "0x608060405234801561001057600080fd5b5061049b806100206000396000f3fe608060405234801561001057600080fd5b50600436106100415760003560e01c80632203ac03146100465780637fd5eae91461009e578063d122dbdc14610183575b600080fd5b61009c6004803603604081101561005c57600080fd5b81019080803573ffffffffffffffffffffffffffffffffffffffff169060200190929190803567ffffffffffffffff1690602001909291905050506101db565b005b610181600480360360608110156100b457600080fd5b81019080803573ffffffffffffffffffffffffffffffffffffffff16906020019092919080359060200190929190803590602001906401000000008111156100fb57600080fd5b82018360208201111561010d57600080fd5b8035906020019184600183028401116401000000008311171561012f57600080fd5b91908080601f016020809104026020016040519081016040528093929190818152602001838380828437600081840152601f19601f820116905080830192505050505050509192919290505050610291565b005b6101c56004803603602081101561019957600080fd5b81019080803573ffffffffffffffffffffffffffffffffffffffff169060200190929190505050610376565b6040518082815260200191505060405180910390f35b8067ffffffffffffffff166000803373ffffffffffffffffffffffffffffffffffffffff1673ffffffffffffffffffffffffffffffffffffffff168152602001908152602001600020600101600082825403925050819055508067ffffffffffffffff166000808473ffffffffffffffffffffffffffffffffffffffff1673ffffffffffffffffffffffffffffffffffffffff168152602001908152602001600020600101600082825401925050819055505050565b60405180606001604052808473ffffffffffffffffffffffffffffffffffffffff168152602001838152602001828152506000808573ffffffffffffffffffffffffffffffffffffffff1673ffffffffffffffffffffffffffffffffffffffff16815260200190815260200160002060008201518160000160006101000a81548173ffffffffffffffffffffffffffffffffffffffff021916908373ffffffffffffffffffffffffffffffffffffffff16021790555060208201518160010155604082015181600201908051906020019061036d9291906103c1565b50905050505050565b60008060008373ffffffffffffffffffffffffffffffffffffffff1673ffffffffffffffffffffffffffffffffffffffff168152602001908152602001600020600101549050919050565b828054600181600116156101000203166002900490600052602060002090601f016020900481019282601f1061040257805160ff1916838001178555610430565b82800160010185558215610430579182015b8281111561042f578251825591602001919060010190610414565b5b50905061043d9190610441565b5090565b61046391905b8082111561045f576000816000905550600101610447565b5090565b9056fea265627a7a72315820ee04e4fdccfdd250fc7dd9824a8bddfea0afa8c6d6c608d038a2fc6f011adcd864736f6c63430005100032",
  "source": "//this is solidity contract for our wallet application\n// SPDX-License-Identifier: MIT\npragma solidity >=0.4.22 <0.8.0;\n\ncontract wallet {\n    struct Wallet {\n        address id;\n        uint256 ammount;\n        string mailid;\n    }\n\n    mapping(address => Wallet) getwallet;\n\n    //mapping(address => Wallet) getBallance;\n\n    function createWallet(\n        address add,\n        uint256 ammount,\n        string memory mailid\n    ) public {\n        getwallet[add] = Wallet(add, ammount, mailid);\n    }\n\n    function showAmmount(address add) public view returns (uint256) {\n        return getwallet[add].ammount;\n    }\n\n    function sendAmmount(address add, uint64 ammount) public {\n        getwallet[msg.sender].ammount -= ammount;\n        getwallet[add].ammount += ammount;\n    }\n}\n",
  "sourcePath": "C:/coursera/truffle/eWallet/contracts/wallet.sol",
  "compiler": {
    "name": "solc",
    "version": "0.5.16+commit.9c3226ce.Emscripten.clang"
  },
  "schemaVersion": "3.2.3",
  "updatedAt": "2020-11-26T08:07:45.005Z",
  "networkType": "ethereum",
  "devdoc": {
    "methods": {}
  },
  "userdoc": {
    "methods": {}
  }
}